:03000000020109F1
:0C010900787FE4F6D8FD758127020150D4
:100273000A0CC0F9A4B0999282F880900216000982
:0C0283000218003B021A003202080000C2
:04024F00F8E6F5A038
:10025300E4FDFCC3ED9FEC9E5015E4FAFB0BBB00E1
:0F026300010AEB64784A70F50DBD00010C80E4D0
:010272002269
:10000E00E4F51CF51DF51EF51FF520F521F522F57D
:10001E0023F524F525F582F583AE16AF17FC7D0A80
:10002E001201FA8E1C8F1DAE16AF177C007D0A12C0
:10003E0001FA8C1E8D1FAE18AF197C007D0A1201BD
:10004E00FA8E208F21AE18AF197C007D0A1201FAAC
:10005E008C228D23AE1AAF1B7C007D0A1201FA8E04
:10006E00248F25AE1AAF1B7C007D0A1201FA8C83F9
:10007E008D8275B0FF75A00175B07F850DA07F02D2
:10008E007E0012025375B0FF75A00275B07F850C0D
:10009E00A012025375B0FF75A00475B07F740C25C5
:1000AE001D12024F75B0FF75A00875B07F740C2538
:1000BE001F12024F75B0FF75A01075B07F740C251E
:1000CE002112024F75B0FF75A02075B07F740C25FC
:1000DE002312024F75B0FF75A04075B07F740C25CA
:1000EE002512024F75B0FF75A08075B07FAF827478
:0B00FE000C2FF8E6F5A07F0202025371
:03000B000201955A
:02019500C0E0C8
:10019700752600752700758C3C758AB00509E50939
:1001A7007002050864144508700E051BE51B7002F4
:1001B700051A750800750900E51B643C451A700EA1
:1001C7000519E51970020518751A00751B00E51960
:1001D700643C4518700E0517E5177002051675186B
:1001E70000751900E517641845167004F516F5171C
:0301F700D0E03223
:10029000758901758C3C758AB0D2A9D2AFD28C1207
:0402A000000E80FBD1
:10011500020290E493A3F8E493A34003F68001F26E
:1001250008DFF48029E493A3F85407240CC8C333EB
:10013500C4540F4420C8834004F456800146F6DFBA
:10014500E4800B0102040810204080900273E47ED5
:10015500019360BCA3FF543F30E509541FFEE493AF
:10016500A360010ECF54C025E060A840B8E493A376
:10017500FAE493A3F8E493A3C8C582C8CAC583CAA1
:10018500F0A3C8C582C8CAC583CADFE9DEE780BE59
:01028F00006E
:1001FA00BC000BBE0029EF8DF084FFADF022E4CCE9
:10020A00F875F008EF2FFFEE33FEEC33FCEE9DECB1
:10021A00984005FCEE9DFE0FD5F0E9E4CEFD22EDF7
:10022A00F8F5F0EE8420D21CFEADF075F008EF2F41
:10023A00FFED33FD4007985006D5F0F222C398FD32
:05024A000FD5F0EA22CF
:00000001FF
