:03000000020003F8
:0C000300787FE4F6D8FD75811202004AF7
:0F00DC000108050A09C0F9A4B0999282F8809032
:0D00EC00EFD3940040077E6EDEFE1F80F310
:0100F90022E4
:10008F00759850758920E4F587758DFD758BFDD2B8
:10009F008ED2AFD2AC75B0FF75A00175B07F75A0D1
:1000AF00FF7590FB7F037E001200EC2095F685080C
:1000BF009974092508F8E6F5A07F147E001200EC6C
:0D00CF00E4F5A030B5FDC2992095D980FB65
:10000F0002008FE493A3F8E493A34003F68001F278
:10001F0008DFF48029E493A3F85407240CC8C333F2
:10002F00C4540F4420C8834004F456800146F6DFC1
:10003F00E4800B01020408102040809000DCE47E75
:10004F00019360BCA3FF543F30E509541FFEE493B6
:10005F00A360010ECF54C025E060A840B8E493A37D
:10006F00FAE493A3F8E493A3C8C582C8CAC583CAA8
:10007F00F0A3C8C582C8CAC583CADFE9DEE780BE60
:0100EB000014
:00000001FF
