:03000000020003F8
:0C000300787FE4F6D8FD75811902004AF0
:1000F800100AF9A4B0999282F880900000000000DC
:020108000000F5
:0400E2007F147E0009
:1000E600E4FDFCC3ED9FEC9E50070DBD00010C80A6
:0100F600F217
:0100F70022E6
:10008F0075B0FF75A00175B07F75A0FF7590FBE48B
:10009F00FB20950A1200E2740A2BF8E6F5A02094D3
:1000AF000A1200E2740D2BF8E6F5A020930A120055
:1000BF00E274102BF8E6F5A07FF47E011200E6AF94
:1000CF00904307F0EFC313FF4307F08F900BBB0371
:0300DF00C080B925
:10000F0002008FE493A3F8E493A34003F68001F278
:10001F0008DFF48029E493A3F85407240CC8C333F2
:10002F00C4540F4420C8834004F456800146F6DFC1
:10003F00E4800B01020408102040809000F8E47E59
:10004F00019360BCA3FF543F30E509541FFEE493B6
:10005F00A360010ECF54C025E060A840B8E493A37D
:10006F00FAE493A3F8E493A3C8C582C8CAC583CAA8
:10007F00F0A3C8C582C8CAC583CADFE9DEE780BE60
:01010A0000F4
:00000001FF
