:020000040800F2
:100000001804002045010008B9020008B1020008E8
:10001000B50200088D0100082D0400080000000052
:10002000000000000000000000000000DD020008E9
:100030009101000800000000BB020008C90300088D
:100040005F0100085F0100085F0100085F01000810
:100050005F0100085F0100085F0100085F01000800
:100060005F0100085F0100085F0100085F010008F0
:100070005F0100085F0100085F0100085F010008E0
:100080005F0100085F0100085F0100085F010008D0
:100090005F0100085F0100085F0100085F010008C0
:1000A0005F0100085F0100085F0100085F010008B0
:1000B0005F0100085F0100085F0100085F010008A0
:1000C0005F0100085F0100085F0100085F01000890
:1000D0005F0100085F0100085F0100085F01000880
:1000E0005F0100085F0100085F0100085F01000870
:1000F0005F0100085F0100085F0100085F01000860
:100100005F0100085F0100085F0100085F0100084F
:100110005F0100085F0100085F0100085F0100083F
:100120005F0100085F0100085F0100085F0100082F
:10013000DFF80CD000F018F800480047FD04000874
:10014000180400200648804706480047FEE7FEE7FF
:10015000FEE7FEE7FEE7FEE7FEE7FEE7FEE7FEE777
:10016000CD03000831010008064C074D06E0E068A9
:1001700040F0010394E8070098471034AC42F6D3EE
:10018000FFF7DAFF600500088005000800BFFEE702
:1001900070472DE9F041024600250026002000238B
:1001A0000024002791F803C00CF00F0591F803C05C
:1001B0000CF0100CBCF1000F03D091F802C04CEA17
:1001C000050591F800C0BCF1000F31D01468002083
:1001D0002BE04FF0010C0CFA00F3B1F800C00CEA70
:1001E00003069E4220D183004FF00F0C0CFA03F758
:1001F000BC4305FA03FC4CEA040491F803C0BCF1CB
:10020000280F06D14FF0010C0CFA00FCC2F814C004
:100210000AE091F803C0BCF1480F05D14FF0010C82
:100220000CFA00FCC2F810C0401C0828D1D314609E
:10023000B1F800C0BCF1FF0F34DD546800202EE09F
:1002400000F1080C4FF0010808FA0CF3B1F800C0F7
:100250000CEA03069E4221D183004FF00F0C0CFAEA
:1002600003F7BC4305FA03FC4CEA040491F803C00D
:10027000BCF1280F05D100F1080C08FA0CF8C2F8FF
:10028000148091F803C0BCF1480F07D100F1080CAD
:100290004FF0010808FA0CF8C2F81080401C08283A
:1002A000CED35460BDE8F081416170470161704771
:1002B00000BFFEE700BFFEE77047704729B1064A5E
:1002C00092690243044B9A6104E0034A92698243B3
:1002D000014B9A617047000000100240704710B552
:1002E00000F002F810BD00000CB500200190009055
:1002F0003348006840F480303149086000BF30481E
:10030000006800F4003000900198401C01900098B3
:1003100018B90198B0F5A06FF1D12948006800F430
:10032000003010B10120009001E000200090009802
:10033000012843D12348006840F01000214908609B
:100340000846006820F0030008600846006840F096
:10035000020008601A484068194948600846406829
:1003600048600846406840F480604860084640683D
:1003700020F47C1048600846406840F4E81048606B
:100380000846006840F08070086000BF0C480068B4
:1003900000F000700028F9D00948406820F0030000
:1003A000074948600846406840F00200486000BFC6
:1003B0000348406800F00C000828F9D10CBD00008B
:1003C00000100240002002407047000010B51348A2
:1003D000006840F001001149086008464068104973
:1003E00008400E494860084600680E4908400B491D
:1003F00008600846006820F48020086008464068CD
:1004000020F4FE0048604FF41F008860FFF767FF8C
:100410004FF000600449086010BD00000010024069
:100420000000FFF8FFFFF6FE08ED00E000BFFEE76A
:1004300002E008C8121F08C1002AFAD170477047AD
:10044000002001E001C1121F002AFBD1704710B546
:1004500000F003F800F03CF810BD10B501210820B1
:10046000FFF72CFF10BD00E0401E0028FCDC7047A9
:1004700008B5002100916FF07F414FF0E0225161FB
:10048000002191610521116114E000214FF0E0226B
:1004900091610E4909684FF47A72B1FBF2F1C1F132
:1004A0008071009100BF4FF0E0218969009A91426C
:1004B000F9D8401E0028E8DC4FF0E021096921F05E
:1004C00001014FF0E022116108BD00000000002092
:1004D00008B5E020ADF8000010208DF803000320DF
:1004E0008DF8020069460448FFF753FEE0210248F8
:1004F000FFF7DAFE08BD0000000C01400024FFF702
:10050000A6FF4FF4FA60FFF7B3FF25E08021134800
:10051000FFF7CAFE002418E040211048FFF7C6FE8E
:1005200004EB84014FF47A7202EB8100FFF79BFF2A
:1005300040210A48FFF7B8FE04EB84014FF47A72B9
:1005400002EB8100FFF78FFF641CB4F5487FE3DB0B
:100550004FF47A70FFF78CFFD8E70000000C0140E1
:10056000800500080000002014000000300400088E
:100570009405000814000020040400004004000852
:1005800000A24A0400000000000000000102030471
:040590000607080949
:0400000508000131BD
:00000001FF
