:03000000020611E4
:0C061100787FE4F6D8FD75817D02065864
:100A130048656C6C6F00F9A4B0999282F88090C01D
:0F0A2300F9A4B0999282F880908883C6A1868E3C
:100795000A08323032352D312D31330011124865BA
:1007A5006C6C6F576F726C6421696D6C7A78000A96
:1007B50036C0F9A4B0999282F88090022D0000020B
:1007C5002300000225000002290000022B00000280
:1007D5002F00000231000002440000024000000228
:0307E500330000DE
:10002600E4F564F565E564700512086A8F64E564B5
:1000360024FE70030200DD1470030201D81470035D
:100046000201F8147003020258240470D8E53445FE
:10005600337008F533753401120A80120A807F80E6
:10006600120A6CE4F546F54774082547F8E6FF12D0
:10007600000E7F057E001209F30547E5477002056D
:1000860046D39408E546940040DE75480075490F4E
:10009600C3E5489400408EE54924C0FF120A6CE48B
:1000A600F546F54774122547F8E6FF12000E7F0560
:1000B6007E001209F30547E54770020546D3940E04
:1000C600E546940040DE7FF47E011209F3E549150A
:1000D6004970BD154880B9E53445337008F5337568
:1000E6003401120A807F80120A6CE4F546F54774E3
:1000F600082547F8E6FF12000E7F057E001209F379
:100106000547E54770020546D39408E54694004046
:10011600DE1209BF8F35AC35E41203B87B007A4096
:10012600799C78411202A81203EC8E278F287C0353
:100136007DE8120486EF2430F574AE27AF287C00E4
:100146007D641204867C007D0A120486ED2430F557
:1001560075AE27AF287C007D641204867E007F0A78
:10016600CFCDCFCECCCE120486EF2430F576AE2797
:10017600AF287C007D0A120486ED2430F5777FC017
:10018600120A6C7F4112000E7F4412000E7F31125C
:10019600000E7F3A12000EE4F546F54774742547C3
:1001A600F8E6FF12000E7F057E001209F30547E50B
:1001B6004770020546C39404E546940040DE7F6D11
:1001C60012000E7F5612000E7FF47E011209F30212
:1001D600002BE53445337014F53375340175890108
:1001E600758C3C758AB0D2A9D2AFD28C1204E902C2
:1001F600002BE5344533700EF53375340175A001D7
:10020600D2AFD288D2A8E4F548F549C3E5499408A7
:10021600E5489400400302002B75A001AFA0A84951
:10022600EF08800123D8FDF5A0D2B7C2B774222506
:1002360041F582740A3540F583E493F5A0D2B6C23F
:10024600B67F017E001209F30549E54970BD0548F0
:1002560080B9E53445337013F533753401120A510C
:100266007BFF7A0A7913120A94D2ACE4F542F5437D
:10027600C3E5439403E5429400400302002BE543A3
:1002860025E0244AF8E6FC08E6FDAF43AE42120933
:10029600547F027E00120A320543E54370D20542BE
:0202A60080CE08
:030003000208C22E
:1008C200C0E0C0F0C083C082C0D075D000C000C0FC
:1008D20001C002C003C004C005C006C00720B21593
:1008E2000541E5417002054053410F7540007F64A8
:1008F2007E001209F3D007D006D005D004D003D071
:1009020002D001D000D0D0D082D083D0F0D0E0325B
:03000B00020805E3
:02080500C0E051
:10080700757200757300758C3C758AB00545E545B2
:100817007002054464144544700E0563E563700275
:100827000562754400754500E563643C4562700EDA
:100837000557E55770020556756200756300E55761
:10084700643C4556700E0555E555700205547556BE
:1008570000755700E555641845547004F554F5556F
:03086700D0E032AC
:03002300020912BD
:10091200C0E0C0F0C083C082C0D075D000C000C0AB
:1009220001C002C003C004C005C006C0073098075A
:10093200AF99120AC4C298D007D006D005D004D00D
:1009420003D002D001D000D0D0D082D083D0F0D05A
:02095200E03291
:0D0AB70075B0FF75A00175B07F75A0FF221E
:10086A00E4F5677590FBF56620950C7F147E0012FF
:10087A0009F3E56604F56720940D7F147E001209DA
:10088A00F3E5662404F56720930D7F147E001209B0
:10089A00F3E5662407F5677F647E001209F3AF90DB
:1008AA004307F0EFC313FF4307F08F900566E56631
:0708BA00D3940240B3AF67C5
:0108C1002214
:1009F300E4FDFCC3ED9FEC9E5015E4FAFB0BBB003A
:0F0A0300010AEB64784A70F50DBD00010C80E428
:010A120022C1
:10000E00D290C291C2928F807F057E001209F3D2E8
:04001E0092C29222D6
:100A6C00C290C291C2928F807F057E001209F3D290
:040A7C0092C292226E
:100A80007F38120A6C7F0C120A6C7F06120A6C7F88
:040A900001020A6CE9
:10071D007F80120A6CE4F546F54774082547F8E624
:10072D00FF12000E7F057E001209F30547E54770A5
:10073D00020546D39408E546940040DE75480075E1
:10074D00490FE54924C0FF120A6CE4F546F54774DC
:10075D00122547F8E6FF12000E7F057E001209F301
:10076D000547E54770020546D3940EE546940040D3
:10077D00DE7FF47E011209F3E54915497002154833
:08078D00C3E548940050BB22B3
:1007E8000A58C0F9A4B0999282F88090025400097E
:0C07F8000256003B02620032025000007A
:1004E900E4F566F567F568F569F56AF56BF56CF598
:1004F9006DF56EF56FF570F571AE54AF55FC7D0A6B
:100509001204868E668F67AE54AF557C007D0A1241
:1005190004868C688D69AE56AF577C007D0A12043B
:10052900868E6A8F6BAE56AF577C007D0A120486A1
:100539008C6C8D6DAE62AF637C007D0A1204868E71
:100549006E8F6FAE62AF637C007D0A1204868C7079
:100559008D7175B0FF75A00175B07F8559A07F02B7
:100569007E001209F375B0FF75A00275B07F85583A
:10057900A07F027E001209F375B0FF75A00475B063
:100589007F74582567F8E6F5A07F027E001209F30B
:1005990075B0FF75A00875B07F74582569F8E6F540
:1005A900A07F027E001209F375B0FF75A01075B027
:1005B9007F7458256BF8E6F5A07F027E001209F3D7
:1005C90075B0FF75A02075B07F7458256DF8E6F5F4
:1005D900A07F027E001209F375B0FF75A04075B0C7
:1005E9007F7458256FF8E6F5A07F027E001209F3A3
:1005F90075B0FF75A08075B07F74582571F8E6F560
:08060900A07F027E000209F34C
:100AA700758901758C3C758AB0D2A9D2AFD28C22D8
:10069D00E4F57CF57DE57C705CE57D14601D1460F2
:1006AD002B1460392403704D75B0FF75A00175B022
:1006BD007F7474257DF8E6547F803175B0FF75A089
:1006CD000275B07F7474257DF8E6802075B0FF75D6
:1006DD00A00475B07F7474257DF8E6800F75B0FFAA
:1006ED0075A00875B07F7474257DF8E6F5A07F02BE
:1006FD007E001209F37F017E001209F3057DE57D71
:0F070D007002057CC39408E57C6480948040866C
:01071C0022BA
:1009BF00E4FFF566C2B5C2B6D2B7D2B6C2B6D2B7E9
:1009CF00D2B6C2B6D2B7D2B6C2B7C2B6D2B7FED2BD
:1009DF00B6C2B6A2B7E433FDEF25E04DFF0EBE0859
:0309EF00EED2B590
:0109F20022E2
:100A510053877F75985053890F438920758BFD7596
:0B0A61008DFDD28EC2ABD2AFD2AC2212
:10095400C2B7C2B6D3EF9407EE940040055307071D
:100964007E00A8077F01EF08800123D8FDF5A0D2FF
:10097400B7C2B774222DF582740A3CF583E493F56B
:06098400A0D2B6C2B622AB
:10098A00AB07AA067C007D641204868E008F007C69
:10099A00007D0AAF03AE021204867C007D0A1204AF
:1009AA00868C008D00AE02AF037C007D0A1204869D
:0509BA008C008D0022FD
:100A3200D3EF9400EE94004015E4FDFC0DBD0001DF
:0E0A42000CED647D4C70F5EF1F70E51E80E238
:010A50002283
:080AC4008F993099FDC29922BF
:100A940012046DFF600C120AC4740129F9E43AFAD5
:030AA40080EE22BF
:1002A800EC4D6011E8497017ED33EC3304600DE450
:1002B800FCFFFEFD22E933E8330470F8020458120B
:1002C800042358046009E4CC24815006285009020C
:1002D800046228400302045FC0E0EB4A7044B9801E
:1002E80006D0E0FB02044EEF4E701CBD8008EBFF09
:1002F800EAFEE9FD80EBE98DF0A4FEE5F00203914A
:10030800E9CDF9EAFEEBFFEF89F0A4FCE5F0CE8930
:10031800F0A42EFFE435F0CD89F0A42DFEE435F0ED
:100328008067EF4E7005BD80D780C3EF8BF0A4AC1B
:10033800F0EE8BF0A42CFCE435F0F8EF8AF0A42C56
:10034800E5F038FCE433CB8DF0A42CFCE5F03BF869
:10035800EE8AF0A42CFCE5F038F8E433CF89F0A459
:100368002CFCE5F038CF3400CE89F0A42FFFE5F05F
:100378003EFEE433C98DF0A42EFEE5F039CD8AF0B7
:10038800A42FFFE5F03EFEE43DFD33D0E0FB50072F
:100398000BBB000F020462EC2CFCEF33FFEE33FEC4
:0603A800ED33FD02043AF2
:1003AE0075F020800E75F010800575F0087D007ECA
:1003BE00007F003392D530D5031204DBEC334010AE
:1003CE00EF33FFEE33FEED33FDEC33FCD5F0ED22D3
:0E03DE00E5F0247EA2D513CC92E7CDCEFF220F
:1003EC00EDD2E7CD33EC3392D524814006E4FFFE09
:1003FC00FDFC22FCE4CFCECDCC24E0501174FF8068
:10040C00EDC3CC13CCCD13CDCE13CECF13CF047004
:07041C00F030D5DE0204DB25
:10042300E9D2E7C933E833F892D5EDD2E7CD33EC1F
:0704330033FC5002B2D52298
:10043A00EC30E7100FBF000C0EBE00080DBD000423
:10044A000BEB6014A2D5EB13FCED92E7FD2274FFCF
:10045A00FCFDFEFF22E480F8A2D574FF13FC7D8028
:03046A00E480EF3C
:10061D00020026E493A3F8E493A34003F68001F2CD
:10062D0008DFF48029E493A3F85407240CC8C333DE
:10063D00C4540F4420C8834004F456800146F6DFAD
:10064D00E4800B0102040810204080900795E47EA1
:10065D00019360BCA3FF543F30E509541FFEE493A2
:10066D00A360010ECF54C025E060A840B8E493A369
:10067D00FAE493A3F8E493A3C8C582C8CAC583CA94
:10068D00F0A3C8C582C8CAC583CADFE9DEE780BE4C
:0108040000F3
:10046D00BB010689828A83E0225002E722BBFE028D
:09047D00E32289828A83E49322C0
:10048600BC000BBE0029EF8DF084FFADF022E4CC5A
:10049600F875F008EF2FFFEE33FEEC33FCEE9DEC23
:1004A600984005FCEE9DFE0FD5F0E9E4CEFD22ED69
:1004B600F8F5F0EE8420D21CFEADF075F008EF2FB3
:1004C600FFED33FD4007985006D5F0F222C398FDA4
:0504D6000FD5F0EA2241
:0E04DB00C3E49FFFE49EFEE49DFDE49CFC2232
:00000001FF
