:0300000002000EED
:0C000E00787FE4F6D8FD758109020055EA
:06000300010900010800E4
:1000EA00EF1FAA0670011E4A600BE4FDEDC3947867
:0500FA0050EE0D80F73F
:0100FF0022DE
:10009A00758901D2A9D2AF758CFF758AD2D28CE547
:1000AA0008700ED2A2C2A17FB87E0B1200EA7508B0
:0C00BA0001E508B401E9C2A2C2A180E384
:03000B000200C62A
:1000C600C0E0C0D0C28C758CFF758AD20509E509DF
:1000D600B40202B2A0E509B41E05B2A0750900D0AB
:0400E600D0D0E03264
:10001A0002009AE493A3F8E493A34003F68001F262
:10002A0008DFF48029E493A3F85407240CC8C333E7
:10003A00C4540F4420C8834004F456800146F6DFB6
:10004A00E4800B0102040810204080900003E47E43
:10005A00019360BCA3FF543F30E509541FFEE493AB
:10006A00A360010ECF54C025E060A840B8E493A372
:10007A00FAE493A3F8E493A3C8C582C8CAC583CA9D
:10008A00F0A3C8C582C8CAC583CADFE9DEE780BE55
:0100090000F6
:00000001FF
