:03000000020003F8
:0C000300787FE4F6D8FD75812502004AE4
:10011F000A08323032342D312D313000101248653B
:0E012F006C6C6F2C49276D20465A5921200018
:0C00F3002523F8E6FF1201527F057E0075
:1000FF00E4FDFCC3ED9FEC9E5015E4FAFB0BBB0037
:0F010F00010AEB64784A70F50DBD00010C80E425
:01011E0022BE
:10015200D290C291C2928F801200FBD292C292229E
:10016200C290C291C2928F801200FBD292C292229E
:10013E007F381201627F0C1201627F061201627F0C
:04014E000102016247
:10008F0012013E7F80120162E4F522F523740812FB
:10009F0000F30523E52370020522D39408E522948B
:1000AF000040EA75240075250FC3E524940040D362
:1000BF00E52524C0FF120162E4F522F52374121224
:1000CF0000F30523E52370020522D3940EE5229455
:1000DF000040EA7FF47E011200FFE525152570C967
:0400EF00152480C58F
:10000F0002008FE493A3F8E493A34003F68001F278
:10001F0008DFF48029E493A3F85407240CC8C333F2
:10002F00C4540F4420C8834004F456800146F6DFC1
:10003F00E4800B010204081020408090011FE47E31
:10004F00019360BCA3FF543F30E509541FFEE493B6
:10005F00A360010ECF54C025E060A840B8E493A37D
:10006F00FAE493A3F8E493A3C8C582C8CAC583CAA8
:10007F00F0A3C8C582C8CAC583CADFE9DEE780BE60
:01013D0000C1
:00000001FF
