:03000000020026D5
:0C002600787FE4F6D8FD75811302006DB0
:0C0011000A08C0F9A4B0999282F880900F
:0D000300EFD3940040077E6EDEFE1F80F3F9
:0100100022CD
:1000FE00E4F5A0759850758920F587758DFD758B83
:10010E00FDD28ED2AFD2AC75B0FF75A00175B07FA7
:05011E0075A0FF80FE4A
:030023000200B226
:1000B200C0E0C0D075D000C000C006C00730983183
:1000C200C298AF99EF2401F513E433F512C39400FB
:1000D200401CD3E5139409E51294005011740825CD
:1000E20013F8E6F5A07F3C7E00120003800375A0A2
:0C00F20000D007D006D000D0D0D0E03203
:100032000200FEE493A3F8E493A34003F68001F2E6
:1000420008DFF48029E493A3F85407240CC8C333CF
:10005200C4540F4420C8834004F456800146F6DF9E
:10006200E4800B0102040810204080900011E47E1D
:10007200019360BCA3FF543F30E509541FFEE49393
:10008200A360010ECF54C025E060A840B8E493A35A
:10009200FAE493A3F8E493A3C8C582C8CAC583CA85
:1000A200F0A3C8C582C8CAC583CADFE9DEE780BE3D
:01001D0000E2
:00000001FF
