:0300000002000EED
:0C000E00787FE4F6D8FD75810B020055E8
:0400030002080000EF
:0900D000E4F508F5097FD07E0774
:1000D900EF1FAA0670011E4A600BE4FDEDC3947878
:0500E90050EE0D80F750
:0100EE0022EF
:10010E00758901758CFE758A33D28CC28DD2A9D2B7
:02011E00AF220E
:1000EF00750A00750B0112010ED2A3750A00750B6C
:0F00FF00031200D0750A00750B011200D080ECBF
:03000B0002009A56
:10009A00C0E0C0D00509E50970020508758CFE7537
:1000AA008A33C3E509950BE508950A5004D2A38063
:1000BA0002C2A3E509642845087006F508F509D2C5
:0600CA00A3D0D0D0E0320B
:10001A000200EFE493A3F8E493A34003F68001F20D
:10002A0008DFF48029E493A3F85407240CC8C333E7
:10003A00C4540F4420C8834004F456800146F6DFB6
:10004A00E4800B0102040810204080900003E47E43
:10005A00019360BCA3FF543F30E509541FFEE493AB
:10006A00A360010ECF54C025E060A840B8E493A372
:10007A00FAE493A3F8E493A3C8C582C8CAC583CA9D
:10008A00F0A3C8C582C8CAC583CADFE9DEE780BE55
:0100070000F8
:00000001FF
