:030000000202BF3A
:0C02BF00787FE4F6D8FD75811C02030670
:0C0403000A0CC0F9A4B0999282F8809015
:1003E300E4FDFCC3ED9FEC9E5015E4FAFB0BBB0050
:0F03F300010AEB64784A70F50DBD00010C80E43F
:0104020022D7
:10034B00E4F51BF51CE51B7045E51C14601F1460E0
:10035B00241460292403703675B0FF75A00175B0A5
:10036B007F7408251CF8E6547FF5A0802175B0FF3B
:10037B0075A002800E75B0FF75A004800675B0FFE6
:10038B0075A00875B07F7408251CF8E6F5A07F05ED
:10039B007E001203E3051CE51C7002051BC39404CD
:0803AB00E51B64809480409D75
:0103B3002227
:10022B00E4F519F51A7F2C7E011203E3D2A9D28CC7
:10023B00D2ABD28ED2AFC2B6D2B51203B48F16AC3C
:10024B0016E41201137B007A40799C78411200036B
:10025B001201478E178F187C037DE81201C8740CAE
:10026B002FF8E6F508AE17AF187C007D641201C8B5
:10027B007C007D0A1201C8740C2DF8E6F509AE1747
:10028B00AF187C007D641201C87E007F0ACFCDCFF2
:10029B00CECCCE1201C8740C2FF8E6F50AAE17AF10
:1002AB00187C007D0A1201C8740C2DF8E6F50B12B0
:0402BB00034B8086EB
:1003B400D2B5D2B6C2B5D2B7C2B6D2B6D2B7C2B629
:1003C400D2B6C2B7C2B6D2B6D2B7E4FEC2B630B75E
:0E03D40003430701D2B6EF25E0FF0EBE08EE90
:0103E20022F8
:10000300EC4D6011E8497017ED33EC3304600DE4F7
:10001300FCFFFEFD22E933E8330470F80201B3125A
:10002300017E58046009E4CC24815006285009025B
:1000330001BD2840030201BAC0E0EB4A7044B98015
:1000430006D0E0FB0201A9EF4E701CBD8008EBFF58
:10005300EAFEE9FD80EBE98DF0A4FEE5F00200EC99
:10006300E9CDF9EAFEEBFFEF89F0A4FCE5F0CE89D8
:10007300F0A42EFFE435F0CD89F0A42DFEE435F095
:100083008067EF4E7005BD80D780C3EF8BF0A4ACC3
:10009300F0EE8BF0A42CFCE435F0F8EF8AF0A42CFE
:1000A300E5F038FCE433CB8DF0A42CFCE5F03BF811
:1000B300EE8AF0A42CFCE5F038F8E433CF89F0A401
:1000C3002CFCE5F038CF3400CE89F0A42FFFE5F007
:1000D3003EFEE433C98DF0A42EFEE5F039CD8AF05F
:1000E300A42FFFE5F03EFEE43DFD33D0E0FB5007D7
:1000F3000BBB000F0201BDEC2CFCEF33FFEE33FE14
:06010300ED33FD02019541
:1001090075F020800E75F010800575F0087D007E71
:10011900007F003392D530D50312021DEC33401015
:10012900EF33FFEE33FEED33FDEC33FCD5F0ED227A
:0E013900E5F0247EA2D513CC92E7CDCEFF22B6
:10014700EDD2E7CD33EC3392D524814006E4FFFEB0
:10015700FDFC22FCE4CFCECDCC24E0501174FF800F
:10016700EDC3CC13CCCD13CDCE13CECF13CF0470AC
:07017700F030D5DE02021D8D
:10017E00E9D2E7C933E833F892D5EDD2E7CD33ECC7
:07018E0033FC5002B2D52240
:10019500EC30E7100FBF000C0EBE00080DBD0004CB
:1001A5000BEB6014A2D5EB13FCED92E7FD2274FF77
:1001B500FCFDFEFF22E480F8A2D574FF13FC7D80D0
:0301C500E480EFE4
:1002CB0002022BE493A3F8E493A34003F68001F21C
:1002DB0008DFF48029E493A3F85407240CC8C33334
:1002EB00C4540F4420C8834004F456800146F6DF03
:1002FB00E4800B0102040810204080900403E47E8C
:10030B00019360BCA3FF543F30E509541FFEE493F7
:10031B00A360010ECF54C025E060A840B8E493A3BE
:10032B00FAE493A3F8E493A3C8C582C8CAC583CAE9
:10033B00F0A3C8C582C8CAC583CADFE9DEE780BEA1
:01040F0000EC
:1001C800BC000BBE0029EF8DF084FFADF022E4CC1B
:1001D800F875F008EF2FFFEE33FEEC33FCEE9DECE4
:1001E800984005FCEE9DFE0FD5F0E9E4CEFD22ED2A
:1001F800F8F5F0EE8420D21CFEADF075F008EF2F74
:10020800FFED33FD4007985006D5F0F222C398FD64
:050218000FD5F0EA2201
:0E021D00C3E49FFFE49EFEE49DFDE49CFC22F2
:00000001FF
