:03000000020026D5
:0C002600787FE4F6D8FD75811502006DAE
:100124000A0AC0F9A4B0999282F8809001090001EA
:020134000800C1
:10000300EF1FAA0670011E4A600BE4FDEDC394784E
:0500130050EE0D80F726
:0100180022C5
:10010100758920758DFD758BFD759850E4F587D245
:100111008ED2AFD2AC75B0FF75A00175B07F75A05E
:03012100FF80FE5E
:030023000200B226
:1000B200C0E0C0D075D000C000C002C005C006C0FC
:1000C2000730982C859909C29875080120982174E7
:1000D2000A2509F8E6F5A0E508B4010B850999306F
:1000E20099FDC2997508007F0A7E0012000380DC28
:0F00F200D007D006D005D002D000D0D0D0E03259
:10003200020101E493A3F8E493A34003F68001F2E2
:1000420008DFF48029E493A3F85407240CC8C333CF
:10005200C4540F4420C8834004F456800146F6DF9E
:10006200E4800B0102040810204080900124E47E09
:10007200019360BCA3FF543F30E509541FFEE49393
:10008200A360010ECF54C025E060A840B8E493A35A
:10009200FAE493A3F8E493A3C8C582C8CAC583CA85
:1000A200F0A3C8C582C8CAC583CADFE9DEE780BE3D
:0101360000C8
:00000001FF
